:100601003F065B4F666D7D077F6F777C395E797141
:08062500020C0000020A0000B3
:10057C00758921E4F58CF58A1205D7D2AFD2A91270
:10058C0002D6AF0BAE0A12039DE50D6401450C704B
:10059C0004C2A38002D2A3AF0BAE0A12044B7F6439
:0505AC001205B780DA22
:03000B0002061CCE
:09061C00758C3C758AB0050E32A4
:10039D008E0F8F107C037DE812027374012FF5828E
:1003AD0074063EF583E493F580D2A6C2A67580FE51
:1003BD001205B1AE0FAF107C037DE81202737E0003
:1003CD007F64CFCDCFCECCCE12027374012FF582C8
:1003DD0074063EF583E493F580D2A6C2A67580FD22
:1003ED001205B1AE0FAF107C007D641202737E005A
:1003FD007F0ACFCDCFCECCCE12027374012FF582F2
:10040D0074063EF583E4934480F580D2A6C2A675AA
:10041D0080FB1205B1AE0FAF107C007D0A12027386
:10042D0074012DF58274063CF583E493F580D2A614
:0E043D00C2A67580F7D2A7C2A77F0A0205B734
:1005D700759850E4F58753890F438920758DFD750C
:0505E7008BFDD28E2205
:0D05EC007C00AF03AE02120273EF2430FF5B
:0805F9008F993099FDC299228F
:04044B008F828E838B
:10044F007C007D0A120273AB07AA06AE83AF827CD3
:10045F00007D0A1202738D0FC3EB9464EA9400407F
:10046F002C7D641205EC7C007D0AAF03AE021202F4
:10047F00737C007D0A120273ED2430FF1205F97CA4
:10048F00007D0AAF03AE02120273ED8028C3EB9416
:10049F000AEA94007F2040161205F97D0A1205EC36
:1004AF007C007D0AAF03AE02120273ED80071205C6
:1004BF00F91205F9EB2430FF1205F97F2E1205F919
:1004CF00E50F2430FF1205F97F201205F97F631223
:1004DF0005F97F6D1205F97F0D1205F97F0A0205E7
:0104EF00F913
:0B061100EF1FAC0670011E4C70F622BB
:1002D600E4FBFAF512F511F510F50FC2907F05FE55
:1002E600120611D2907F147E00120611C290309130
:1002F600FDD28C309110E58CD3943840F6C28C75C3
:100306000A0F750BA022C28CAF8CEFFEAD8A7C0063
:10031600E42DFBEC3EFAFEAF03AD07FCE41201B997
:100326007B967A43790B783D12000EE4FBFAF97856
:10033600401201178F128E118D108C0FE4FFFE7D77
:10034600207C41AB12AA11A910A80F12000E1201AF
:10035600F28E0A8F0BC3E50B9428E50A9400500829
:10036600750A00750B288011D3E50B94A0E50A9455
:100376000F4006750A0F750BA0C3E50B9496E50AA8
:1003860094005008750C00750D018005E4F50CF518
:060396000DE4F58CF58A70
:01039C00223E
:0605B100D2A7C2A77F0AD9
:1005B7007E00D3EF9400EE940040147D6E7C00ED36
:0F05C7001D70011CED4C70F7EF1F70E61E80E3F6
:0105D6002202
:10000E00EC4D6011E8497017ED33EC3304600DE4EC
:10001E00FCFFFEFD22E933E8330470F802025E12A3
:10002E00022958046009E4CC2481500628500902A4
:10003E000268284003020265C0E0EB4A7044B980B2
:10004E0006D0E0FB020254EF4E701CBD8008EBFFA1
:10005E00EAFEE9FD80EBE98DF0A4FEE5F00200F783
:10006E00E9CDF9EAFEEBFFEF89F0A4FCE5F0CE89CD
:10007E00F0A42EFFE435F0CD89F0A42DFEE435F08A
:10008E008067EF4E7005BD80D780C3EF8BF0A4ACB8
:10009E00F0EE8BF0A42CFCE435F0F8EF8AF0A42CF3
:1000AE00E5F038FCE433CB8DF0A42CFCE5F03BF806
:1000BE00EE8AF0A42CFCE5F038F8E433CF89F0A4F6
:1000CE002CFCE5F038CF3400CE89F0A42FFFE5F0FC
:1000DE003EFEE433C98DF0A42EFEE5F039CD8AF054
:1000EE00A42FFFE5F03EFEE43DFD33D0E0FB5007CC
:1000FE000BBB000F020268EC2CFCEF33FFEE33FE5D
:06010E00ED33FD0202408A
:10011400020268EC5D046005E85904700302025EA3
:10012400120229580460F6EC4860F2EC7004FDFEFB
:10013400FF22C860DB2481C85009C39860025006BE
:100144000202659850CAF582E9294B4A7005AB82D0
:1001540002025475F0007C1A7880C3EF9BEE9AED8E
:1001640099400DC3EF9BFFEE9AFEED99FDE842F036
:10017400DC23ACF0D0E0FFD0E0FED0E0FDAB822089
:10018400E7101BEB60BAEC2CFCEF33FFEE33FEED13
:1001940033FD020240E803F830E705C0F075F000D3
:1001A400EF2FFFEE33FEED33FD40B830E7C280AAF7
:1001B40075F020800E75F010800575F0087D007EC6
:1001C400007F003392D530D5031202C8EC334010BF
:1001D400EF33FFEE33FEED33FDEC33FCD5F0ED22CF
:0E01E400E5F0247EA2D513CC92E7CDCEFF220B
:1001F200EDD2E7CD33EC3392D524814006E4FFFE05
:10020200FDFC22FCE4CFCECDCC24E0501174FF8063
:10021200EDC3CC13CCCD13CDCE13CECF13CF047000
:07022200F030D5DE0202C836
:10022900E9D2E7C933E833F892D5EDD2E7CD33EC1B
:0702390033FC5002B2D52294
:10024000EC30E7100FBF000C0EBE00080DBD00041F
:100250000BEB6014A2D5EB13FCED92E7FD2274FFCB
:10026000FCFDFEFF22E480F8A2D574FF13FC7D8024
:03027000E480EF38
:030000000204F007
:0C04F000787FE4F6D8FD75811202053714
:10027300BC000BBE0029EF8DF084FFADF022E4CC6F
:10028300F875F008EF2FFFEE33FEEC33FCEE9DEC38
:10029300984005FCEE9DFE0FD5F0E9E4CEFD22ED7E
:1002A300F8F5F0EE8420D21CFEADF075F008EF2FC8
:1002B300FFED33FD4007985006D5F0F222C398FDB9
:0502C3000FD5F0EA2256
:0E02C800C3E49FFFE49EFEE49DFDE49CFC2247
:1004FC0002057CE493A3F8E493A34003F68001F295
:10050C0008DFF48029E493A3F85407240CC8C33300
:10051C00C4540F4420C8834004F456800146F6DFCF
:10052C00E4800B0102040810204080900625E47E34
:10053C00019360BCA3FF543F30E509541FFEE493C4
:10054C00A360010ECF54C025E060A840B8E493A38B
:10055C00FAE493A3F8E493A3C8C582C8CAC583CAB6
:10056C00F0A3C8C582C8CAC583CADFE9DEE780BE6E
:01062D0000CC
:00000001FF
