:100601003F065B4F666D7D077F6F777C395E797141
:08062500020C0000020A0000B3
:10058100758921E4F58CF58A1205D7D2AFD2A9126B
:1005910002D6AF0BAE0A1203A2E50D6401450C7041
:1005A10004C2A38002D2A3AF0BAE0A12045080DFB3
:03000B0002061CCE
:09061C00758C3C758AB0050E32A4
:1003A2008E0F8F107C037DE812027374012FF58289
:1003B20074063EF583E493F580D2A6C2A67580FE4C
:1003C2001205B1AE0FAF107C037DE81202737E00FE
:1003D2007F64CFCDCFCECCCE12027374012FF582C3
:1003E20074063EF583E493F580D2A6C2A67580FD1D
:1003F2001205B1AE0FAF107C007D641202737E0055
:100402007F0ACFCDCFCECCCE12027374012FF582EC
:1004120074063EF583E4934480F580D2A6C2A675A5
:1004220080FB1205B1AE0FAF107C007D0A12027381
:1004320074012DF58274063CF583E493F580D2A60F
:0E044200C2A67580F7D2A7C2A77F0A0205B72F
:1005D700759850E4F58753890F438920758DFD750C
:0505E7008BFDD28E2205
:0D05EC007C00AF03AE02120273EF2430FF5B
:0805F9008F993099FDC299228F
:040450008F828E8386
:100454007C007D0A120273AB07AA06AE83AF827CCE
:10046400007D0A1202738D0FC3EB9464EA9400407A
:100474002C7D641205EC7C007D0AAF03AE021202EF
:10048400737C007D0A120273ED2430FF1205F97C9F
:10049400007D0AAF03AE02120273ED8028C3EB9411
:1004A4000AEA94007F2040161205F97D0A1205EC31
:1004B4007C007D0AAF03AE02120273ED80071205C1
:1004C400F91205F9EB2430FF1205F97F2E1205F914
:1004D400E50F2430FF1205F97F201205F97F63121E
:1004E40005F97F6D1205F97F0D1205F97F0A0205E2
:0104F400F90E
:0B061100EF1FAC0670011E4C70F622BB
:1002D600E4FBFAF512F511F510F50FC2907F05FE55
:1002E600120611D2907F147E00120611C290309130
:1002F600FDE4F58CF58AD28C309110E58CD39438D8
:1003060040F6C28C750A0F750BA022C28CAF8CEF1B
:10031600FEAD8A7C00E42DFBEC3EFAFEAF03AD0792
:10032600FCE41201B97B967A43790B783D12000EF4
:10033600E4FBFAF978401201178F128E118D108C9A
:100346000FE4FFFE7D207C41AB12AA11A910A80F75
:1003560012000E1201F28E0A8F0BC3E50B9428E5EC
:100366000A94005008750A00750B288011D3E50B16
:1003760094A0E50A940F4006750A0F750BA0C3E515
:100386000B9496E50A94005008750C00750D0180D3
:0B03960005E4F50CF50DE4F58CF58A8C
:0103A1002239
:0605B100D2A7C2A77F0AD9
:1005B7007E00D3EF9400EE940040147D6E7C00ED36
:0F05C7001D70011CED4C70F7EF1F70E61E80E3F6
:0105D6002202
:10000E00EC4D6011E8497017ED33EC3304600DE4EC
:10001E00FCFFFEFD22E933E8330470F802025E12A3
:10002E00022958046009E4CC2481500628500902A4
:10003E000268284003020265C0E0EB4A7044B980B2
:10004E0006D0E0FB020254EF4E701CBD8008EBFFA1
:10005E00EAFEE9FD80EBE98DF0A4FEE5F00200F783
:10006E00E9CDF9EAFEEBFFEF89F0A4FCE5F0CE89CD
:10007E00F0A42EFFE435F0CD89F0A42DFEE435F08A
:10008E008067EF4E7005BD80D780C3EF8BF0A4ACB8
:10009E00F0EE8BF0A42CFCE435F0F8EF8AF0A42CF3
:1000AE00E5F038FCE433CB8DF0A42CFCE5F03BF806
:1000BE00EE8AF0A42CFCE5F038F8E433CF89F0A4F6
:1000CE002CFCE5F038CF3400CE89F0A42FFFE5F0FC
:1000DE003EFEE433C98DF0A42EFEE5F039CD8AF054
:1000EE00A42FFFE5F03EFEE43DFD33D0E0FB5007CC
:1000FE000BBB000F020268EC2CFCEF33FFEE33FE5D
:06010E00ED33FD0202408A
:10011400020268EC5D046005E85904700302025EA3
:10012400120229580460F6EC4860F2EC7004FDFEFB
:10013400FF22C860DB2481C85009C39860025006BE
:100144000202659850CAF582E9294B4A7005AB82D0
:1001540002025475F0007C1A7880C3EF9BEE9AED8E
:1001640099400DC3EF9BFFEE9AFEED99FDE842F036
:10017400DC23ACF0D0E0FFD0E0FED0E0FDAB822089
:10018400E7101BEB60BAEC2CFCEF33FFEE33FEED13
:1001940033FD020240E803F830E705C0F075F000D3
:1001A400EF2FFFEE33FEED33FD40B830E7C280AAF7
:1001B40075F020800E75F010800575F0087D007EC6
:1001C400007F003392D530D5031202C8EC334010BF
:1001D400EF33FFEE33FEED33FDEC33FCD5F0ED22CF
:0E01E400E5F0247EA2D513CC92E7CDCEFF220B
:1001F200EDD2E7CD33EC3392D524814006E4FFFE05
:10020200FDFC22FCE4CFCECDCC24E0501174FF8063
:10021200EDC3CC13CCCD13CDCE13CECF13CF047000
:07022200F030D5DE0202C836
:10022900E9D2E7C933E833F892D5EDD2E7CD33EC1B
:0702390033FC5002B2D52294
:10024000EC30E7100FBF000C0EBE00080DBD00041F
:100250000BEB6014A2D5EB13FCED92E7FD2274FFCB
:10026000FCFDFEFF22E480F8A2D574FF13FC7D8024
:03027000E480EF38
:030000000204F502
:0C04F500787FE4F6D8FD75811202053C0A
:10027300BC000BBE0029EF8DF084FFADF022E4CC6F
:10028300F875F008EF2FFFEE33FEEC33FCEE9DEC38
:10029300984005FCEE9DFE0FD5F0E9E4CEFD22ED7E
:1002A300F8F5F0EE8420D21CFEADF075F008EF2FC8
:1002B300FFED33FD4007985006D5F0F222C398FDB9
:0502C3000FD5F0EA2256
:0E02C800C3E49FFFE49EFEE49DFDE49CFC2247
:10050100020581E493A3F8E493A34003F68001F28A
:1005110008DFF48029E493A3F85407240CC8C333FB
:10052100C4540F4420C8834004F456800146F6DFCA
:10053100E4800B0102040810204080900625E47E2F
:10054100019360BCA3FF543F30E509541FFEE493BF
:10055100A360010ECF54C025E060A840B8E493A386
:10056100FAE493A3F8E493A3C8C582C8CAC583CAB1
:10057100F0A3C8C582C8CAC583CADFE9DEE780BE69
:01062D0000CC
:00000001FF
